:020000040800F2
:1000000090080020890100082321000889180008B1
:1000100021210008010300089D26000800000000BF
:10002000000000000000000000000000472200085F
:100030004D0300080000000045220008DD220008F2
:10004000A3010008A3010008A3010008A301000800
:10005000A3010008A3010008A3010008A3010008F0
:10006000A3010008A3010008A3010008A3010008E0
:10007000A3010008A3010008A3010008A3010008D0
:10008000A3010008A3010008A3010008A3010008C0
:10009000A3010008A3010008A3010008A3010008B0
:1000A000A3010008A3010008A3010008A3010008A0
:1000B000A3010008A3010008A3010008A301000890
:1000C000A3010008A3010008A3010008A301000880
:1000D000A3010008A3010008A3010008A301000870
:1000E000A3010008A3010008A301000800F002F822
:1000F00000F03AF80AA090E8000C82448344AAF188
:100100000107DA4501D100F02FF8AFF2090EBAE885
:100110000F0013F0010F18BFFB1A43F0010318473B
:10012000483A0000683A0000103A24BF78C878C105
:10013000FAD8520724BF30C830C144BF04680C60ED
:10014000704700000023002400250026103A28BF35
:1001500078C1FBD8520728BF30C148BF0B60704739
:100160001FB51FBD10B510BD00F05CF81146FFF7BC
:10017000F7FF02F0EBFC00F07AF803B4FFF7F2FFB0
:1001800003BC00F07DF8000009488047094800479B
:10019000FEE7FEE7FEE7FEE7FEE7FEE7FEE7FEE737
:1001A000FEE7FEE704480549054A064B7047000094
:1001B000AB230008ED00000890020020900800200A
:1001C00090040020900400204FF0000200B5134678
:1001D00094469646203922BFA0E80C50A0E80C5067
:1001E000B1F12001BFF4F7AF090728BFA0E80C5018
:1001F00048BF0CC05DF804EB890028BF40F8042B11
:1002000008BF704748BF20F8022B11F0804F18BF7D
:1002100000F8012B704770477047704700487047DF
:10022000300200207546FFF7F9FFAE46050069462B
:10023000534620F00700854618B020B5FFF7B2FFFF
:10024000BDE820404FF000064FF000074FF00008D7
:100250004FF0000B21F00701AC46ACE8C009ACE858
:10026000C009ACE8C009ACE8C0098D46704710B5BC
:100270000446AFF300802046BDE81040FFF77DBF85
:1002800001491820ABBEFEE72600020070470000BF
:100290002DE9F047164CA16BE06A03F01BFBE0630D
:1002A000206403F01BFA4FF4E158124E0546404516
:1002B00000DD2664206C03F011FADFF83C900F4F4C
:1002C000484500DA2764454500DDE663E06B03F04E
:1002D00005FA484500DAE763206C03F0FFF90546AC
:1002E000E06B03F0FBF92946BDE8F04701F0ACBF35
:1002F000040000200000E145E0E3FFFF0000E1C54D
:10030000FEE700002DE9F0410F460E4A01460B4E74
:100310000B4D104603F012FA04462946384603F006
:100320000DFA094D296E03F0B5F8314603F006FACF
:10033000214603F0AFF82866BDE8F08148E17A3F36
:100340000AD7A33B00D7A33C04000020704772B635
:10035000FEE700000B4810B50168486A02B20A487F
:100360005242826503691A44026100224A620749C7
:1003700009684B6A1BB2C3654469234443614A62FE
:1003800010BD0000A4010020040000201401002082
:100390002DE9F041284A911E881E01F05DFC264A95
:1003A000921D911E881E01F06FFC234CA41FB4F90E
:1003B000020002F037FE6FF00D052A4603F031FB14
:1003C00002F0F6FB0646A066B4F9060002F02AFE2B
:1003D0002A4603F026FB02F0EBFBE06603F02EF862
:1003E00007460D46304603F029F83A462B4602F000
:1003F000EDFA0022114B02F02DFE114A114B02F0D2
:10040000B9FC02F0D5FB05462066B4F90A0002F0FB
:1004100009FE4FF066320C4B02F0ACFC02F0C8FB58
:1004200080F0004128466166FFF76CFFA16903F088
:1004300051FA2066BDE8F0810A0000200080664085
:100440001F85EB51B81E09406666304070B5044602
:1004500000F004F90546601C02D00448007804440A
:1004600000F0FCF8401BA042FAD370BDB0000020A1
:100470002DE9F84FDFF8B891002409F1040A0AF1D8
:10048000040B23460F270BF1040EC9E00125A540FC
:100490002A40AA427DD1674ED1F804C0ACEB0608D1
:1004A000B44532D014DCBCF1030F3AD009DCBCF106
:1004B000000F2AD0BCF1010F1CD0BCF1020F31D1CA
:1004C0001DE0BCF1110F17D0BCF1120F2AD119E0B9
:1004D000B8F5881F19D006DCB8F5803F15D0B8F5FF
:1004E000801F1FD111E0B8F5001F0ED0B8F5041F12
:1004F00018D10AE0CB6815E0CB681B1D12E0CB6871
:1005000008330FE0CB680C330CE08B682BB1012B68
:100510004FF0080303D0456104E0042302E00561C5
:1005200000E00023FF2A01D8064601E000F104069E
:100530004FEA840501D9A5F12005D6F8008007FA15
:1005400005FC28EA0C0803FA05F548EA0508C6F890
:1005500000804D68ED0062D5374DAE6946F001066A
:10056000AE61AD6924F0030605F001050095334D39
:1005700006EB050CDCF80850A607360F07FA06F85C
:1005800025EA0805DFF8B880404503D14FF00008A0
:1005900017E044E0DFF8AC80404502D14FF001089D
:1005A0000FE0DFF8A480404502D14FF0020808E0D8
:1005B000DFF89880404502D14FF0030801E04FF08A
:1005C000040808FA06F848EA0508CCF808804D68DF
:1005D000D9F80060ED034D4601D5164300E096437F
:1005E0002E604D68DAF80060AD03554601D516431C
:1005F00000E096432E604D68DBF80060ED025D463A
:1006000001D5164300E096432E604D68DEF8006089
:10061000AD02754601D5164300E096432E60641C7A
:100620000D682A46E5407FF431AFBDE8F88F000041
:1006300000040140000011100010024000000140C1
:1006400000080140000C014000100140001401406E
:100650000AB1016170470904FBE7000001488068A6
:1006600070470000B000002070B5040025D094F859
:100670003D00002520B984F83C50204600F078FA6F
:10068000242084F83D002068016821F00101016008
:100690002068016841F4004101602068016821F48C
:1006A0000041016000F0BCFB4D4A6168914201D8F5
:1006B0004C4900E04C49884201D2012070BD4B49B1
:1006C0002368B0FBF1F15E6826F03F060E435E60E2
:1006D0006368934206D94FF4967359434FF47A7383
:1006E000B1FBF3F12368491C1E6A26F03F06314333
:1006F00019626168914210D84900401EB0FBF1F2C6
:10070000521CC2F30B02042A01D2042022E0B0FBE7
:10071000F1F0401CC0F30B001CE0A268F2B301EB47
:10072000C10303EB0116431EB3FBF6F35B1C43F45A
:1007300080431B0549D092B301EBC10202EB0111CA
:10074000401EB0FBF1F0401CC0F30B0040F48040B1
:1007500040F400402168CA694CF6FF739A43104385
:10076000C861D4E9071001432068026822F0C00282
:1007700011430160D4E9030101432068826848F213
:10078000FF339A4311438160D4E90501084321688E
:10079000CA6822F0FF021043C86001E00EE016E0D4
:1007A0002068016841F0010101602564202084F87F
:1007B0003D00256384F83E50002070BD01EB4106EA
:1007C000431EB3FBF6F35B1CB3E70120C2E701EB6A
:1007D0004101401EB0FBF1F0401CC0F30B00B7E735
:1007E000A086010080841E0000093D0040420F00E9
:1007F0002DE9FF4F83B00025DDE910799A46934635
:100800000446DDF848800095FFF728FF064694F877
:100810003D0020287CD119230122854920460096DD
:1008200001F042F90028F5D194F83C0001286FD07E
:10083000012084F83C0020680168C90703D10168E1
:1008400041F0010101602068016821F4006101604C
:10085000222084F83D00402084F83E002564676231
:10086000A4F82A90608D20857248E062CDE9008668
:1008700053465A462046049901F01EF800287DD1BF
:10088000208DDFF8B491202768B1012814D0022808
:10089000206801681ED041F48061016020684169D0
:1008A00080690090B6E02068416981690091016823
:1008B00041F400710160ADE02068016821F48061BD
:1008C000016072B62068416981690091016841F454
:1008D00000710AE041F40061016072B6206841696C
:1008E00081690091016821F48061016062B691E044
:1008F000032868D801280CD0022843464FF0000294
:100900004946204600960FD001F0CEF8B0BB10E06B
:100910008BE032464146204601F045F970BB206825
:100920000069616A08706CE001F0BEF830BB72B615
:1009300034E02068016821F48061016072B62068AB
:100940000069616A0870606A401C6062208D401E08
:100950002085608D401E6085384846F2A8110068E9
:10096000B0FBF1F0C0EBC00000EB80000090401E37
:10097000009008D020684069C04300E029E04007AB
:100980000CD50098F3E744F8305F6773A5732069CE
:1009900040F02000206162B625731AE020680168EB
:1009A00041F40071016020680069616A0870606A42
:1009B000401C6062218D491E2185618D491E618523
:1009C00062B621681BE032464146204601F0EBF852
:1009D00018B1012007B0BDE8F08F20680069616A96
:1009E0000870606A401C6062218D491E2185618DFE
:1009F000491E618521684A69D24352070AD40969B0
:100A00000170606A401C6062208D401E2085608DF0
:100A1000401E6085208D00287FF46AAF84F83D7009
:100A200084F83E5084F83C50D4E70220D2E700001E
:100A3000020010000000FFFF04000100BC000020C5
:100A40002DE9FF4F83B09A46DDE91197934604469E
:100A5000DDF84080FFF702FE054694F83D002028AF
:100A60007FD11923012240492046009501F01CF84E
:100A7000002876D194F83C00012872D0012084F837
:100A80003C0020680168C90703D1016841F00101F9
:100A900001602068016821F400610160212084F870
:100AA0003D00402084F83E0000262664C4F82480DF
:100AB000A4F82A90608D20852C48E062CDE900756D
:100AC00053465A462046049900F074FF70B930E04E
:100AD0002A463946204601F099F858B1206C04287E
:100AE00004D12068016841F400710160012007B061
:100AF000BDE8F08F606A216800780861606A401C78
:100B00006062218D491E89B22185628D521E6285E7
:100B100022685369DB435B070BD469B1007810612D
:100B2000606A401C6062208D401E2085608D401EE2
:100B30006085208D0028CBD12A463946204600F01A
:100B40008DFF0028CAD154F83D0B016841F40071B3
:100B50000160202004F81E09E67766770020C6E7CA
:100B6000FFE70220C3E70000020010000000FFFFC3
:100B700010B586B0002100910191029103910068A7
:100B80001349884222D1134CA06940F00800A061AB
:100B9000A069694600F0080004904FF4407000908E
:100BA00012200190032003900B48FFF761FC0B48D3
:100BB000416841F0E06141F002014160E06940F4C8
:100BC0000010E061E06900F40010049006B010BD70
:100BD0000054004000100240000C014000000140A1
:100BE000024881680278114481607047B00000209B
:100BF000074810B5016841F010010160032000F0C2
:100C000067F80F2000F006F800F024F8002010BD6F
:100C10000020024070B50D4D04464FF47A712878DB
:100C2000B1FBF0F00A490968B1FBF0F000F0DFFA1F
:100C300048B9102C07D200222146501E00F028F897
:100C400000206C6070BD012070BD0000B00000206D
:100C5000BC0000200C4808B5816941F001018161A8
:100C6000816901F001010091C16941F08051C161C8
:100C7000C06900F0805000900448416821F0E061B4
:100C800041F08061416008BD001002400000014059
:100C9000F0B40E4B1B680C46C3F30223C3F10705E7
:100CA000042D00D90425191D072901D2002300E0D5
:100CB000DB1E012606FA05F1491E214099409E409F
:100CC000761E16403143F0BC01F0FDBC0CED00E097
:100CD000064900F0070208684FF6FF03184040EA93
:100CE0000220034A10430860704700000CED00E04A
:100CF0000000FA052DE9F0470F46050061D0434E8C
:100D0000306800F00700B84209D2306820F00700D0
:100D100038433060306800F00700B84251D128688D
:100D20003B4C810712D5400703D5606840F4E06072
:100D300060602878000703D5606840F46050606008
:100D40006068A96820F0F000084360602878C00758
:100D500028D06868012810D02168022810D089079F
:100D600000292EDA616821F0030101436160FFF779
:100D700075FC804641F288390DE021688903EFE770
:100D80008901EDE7FFF76AFCA0EB0801494502D9AC
:100D90000320BDE8F0876068696800F00C00B0EBE4
:100DA000810FEFD1306800F00700B8420BD93068EE
:100DB00020F0070038433060306800F00700B84288
:100DC00001D00120E5E72878400705D56068E9688B
:100DD00020F4E060084360602878000706D560686A
:100DE000296920F4605040EAC100606000F038F8E2
:100DF0006168084AC1F30311515CC84006490860A4
:100E000006480068FFF706FF0020C2E70020024006
:100E100000100240AE3A0008BC000020B4000020E0
:100E20000448054900684968044AC1F30221515C3D
:100E3000C8407047BC00002000100240BE3A0008C5
:100E40000448054900684968044AC1F3C221515C5D
:100E5000C8407047BC00002000100240BE3A0008A5
:100E600012A185B00FC98DE80F0014A0144A0068C4
:100E700004905168134801F00C03042B10D0082B88
:100E80000ED1C1F38343C9031DF803000AD551688D
:100E900004AAC1F34041515C0A4A5043B0FBF1F04F
:100EA00005B0704708494843FAE70000020304050B
:100EB000060708090A0B0C0D0E0F101001020000A6
:100EC0000010024000127A0000093D002DE9F84FA1
:100ED000040070D02078C04DC00749D06868C0F3C6
:100EE0008100012807D06868C0F38100022809D179
:100EF0006868C00306D52868800339D56068002873
:100F0000E7D035E06068B0F5803F0BD010B1B0F5A8
:100F1000A02F11D0286820F480302860286820F4A1
:100F2000802002E0286840F480302860606890B13A
:100F3000FFF794FB06460AE0286840F4802028600A
:100F4000F0E700BFFFF78AFB801B642873D828688E
:100F50008003F7D50CE0FFF781FB064605E000BFF4
:100F6000FFF77CFB801B6428F0D828688003F7D447
:100F700020789A4E80074FF001094FF0000839D5CC
:100F8000686810F00C0F07D06868C0F38100022871
:100F900009D16868C00306D42868800714D5206981
:100FA000012808D110E02069B0B1C6F80090FFF721
:100FB00055FB074605E00AE1FFF750FBC01B02287E
:100FC000C4D828688007F7D52868616920F0F80040
:100FD00040EAC10028600DE0C6F80080FFF73EFB44
:100FE000074604E0FFF73AFBC01B022823D8286815
:100FF0008007F7D4207800072CD57948A169D9B1AA
:10100000C0F80090FFF72AFB074604E0FFF726FB35
:10101000C01B02280FD8686A8007F7D571484FF4C3
:10102000FA510068B0FBF1F0009000BF0098411E3B
:101030000091FAD20EE080E0C0F80080FFF70EFBCE
:10104000074604E0FFF70AFBC01B022875D8686A50
:101050008007F7D42078400760D5E8690027C000F2
:1010600008D4E86940F08050E861E869012700F0A1
:10107000805000905C480168C90513D4016883461C
:1010800041F480710160FFF7E9FA824606E000BF93
:10109000FFF7E4FAA0EB0A0064284ED8DBF8000062
:1010A000C005F5D5E06801280AD008B1052813D09D
:1010B000286A20F001002862286A20F0040002E07B
:1010C000286A40F001002862E06841F2883B98B14C
:1010D000FFF7C4FA82460BE0286A40F00400286259
:1010E000EEE700BFFFF7BAFAA0EB0A0159455AD85C
:1010F000286A8007F6D50CE0FFF7B0FA824605E0D3
:10110000FFF7ACFAA0EB0A0159454CD8286A8007D2
:10111000F6D41FB1E86920F08050E861E06988B337
:101120006968C1F38101022944D00228C6F86080B1
:1011300004D0FFF793FA044638E034E0FFF78EFA64
:10114000074604E0FFF78AFAC01B02282BD828685C
:101150008001F7D4206AB0F5803F05D16868A168A6
:1011600020F4003008436860D4E908010843696846
:1011700021F4741108436860C6F86090FFF76EFAB6
:10118000044606E025E000BFFFF768FA001B0228CE
:1011900009D828688001F7D51BE000BFFFF75EFA89
:1011A000001B022802D90320BDE8F88F28688001BF
:1011B000F4D40EE00128F7D06868226A00F4803188
:1011C000914204D1616A00F47010884201D001207C
:1011D000EAE70020E8E70000001002400000424279
:1011E00080044242BC00002000700040704710B5EF
:1011F000401EB0F1807F01D3012010BD4FF0E024EC
:1012000060610F21601701F05EFA0020A0610720E5
:101210002061002010BD10B5FFF7E8FF10BD0000F1
:1012200070B590F83C20012A26D0012480F83C407B
:10123000022280F83D2003685A689D6822F07006FB
:101240000A6832435A600D4B02689A4208D0B2F1E4
:10125000804F05D00A4B9A4202D00A4B9A4204D1E1
:10126000496825F080031943916080F83D400021D2
:1012700080F83C10084670BD022070BD002C014073
:10128000000400400008004010B5040003D094F8AA
:101290003D0010B107E0012010BD002084F83C00A3
:1012A000204600F01FF8022084F83D00211D206830
:1012B00001F07CF8012084F8460084F83E0084F8B0
:1012C0003F0084F8400084F8410084F8420084F82C
:1012D000430084F8440084F8450084F83D00002071
:1012E00010BD000008B500680649884208D10648CC
:1012F000C16941F00201C161C06900F002000090C3
:1013000008BD0000000400400010024070B5044613
:1013100090F83C00012817D0012584F83C500220A9
:1013200084F83D002068826822F0770222F47F4230
:1013300082600868502830D00DDC20284DD005DCB4
:1013400098B310283BD148E0022070BD302844D02B
:10135000402834D139E0602828D0702806D0B0F574
:10136000805F2CD0B0F5005F29D10AE0CB68D1E9CD
:101370000121206801F05DF82068816841F0770163
:1013800009E0CB68D1E90121206801F052F820681A
:10139000816841F48041816011E0CA684968206831
:1013A00001F0FCF85021206807E016E0CA6849689F
:1013B000206801F004F96021206801F044F884F805
:1013C0003D50002084F83C0070BDCA684968206820
:1013D00001F0E4F840212068EFE72268014610465A
:1013E000EBE72DE9F0410D46040003D094F83D00F1
:1013F00018B108E00120BDE8F081002084F83C002D
:10140000204600F041F8022084F83D002068816801
:1014100044F2070291438160211D206800F0C6FF5D
:10142000226890689169166A2B68AF69034340F29D
:101430000330814341EA0721A868EF6908434FF66A
:10144000FC418843E96840EA0720014328692F6A84
:10145000000140EA0730084369686D6926F02206FA
:1014600046EA0515294393602268906154F8460BBB
:101470000162012004F81F09E0752076E0762077EC
:10148000A0750020B7E7000000B585B000210091ED
:1014900001910291039102681B480121B2F1804F32
:1014A0001CD01A4B9A4217D1C26942F00402C261A1
:1014B000C26902F004020492826942F00802826169
:1014C0008069029100F008000490C020009010484C
:1014D000694600BFFEF7CCFF05B000BDC26942F00F
:1014E0000102C261C26902F001020492826942F003
:1014F000040282618069029100F0040004900320DC
:10150000009069460348E5E70010024000080040EB
:10151000000C01400008014070B590F83E600446A0
:1015200090F83F5090F8423090F84320022021B1CB
:1015300004290ED0012E1BD114E0012E18D1012B4D
:1015400016D184F83E0084F8420001220021206870
:1015500020E0012D0CD1012A0AD184F83F0084F843
:10156000430014E0012D03D1012B01D1012A01D048
:10157000012070BD84F83E0084F83F0084F84200EA
:1015800084F8430001220021206800F045FF012279
:101590000421206800F040FF2068016841F001014B
:1015A0000160002070BD000000B585B000210091F1
:1015B00001910291039100680B49884212D10B48B6
:1015C000816941F0040181618069694600F004008D
:1015D0000490C02000900220019003200390044852
:1015E000FEF746FF05B000BD0004004000100240B9
:1015F0000008014070B5044690F83C000D460128F3
:101600000AD0012084F83C0042B1042A18D0082AEC
:101610002AD00C2A4DD139E0022070BD206800F09C
:101620001BFF2068816941F00801816120688169A0
:1016300021F004018161206881692A69114311E068
:10164000206800F031FF2068816941F40061816108
:101650002068816921F480618161206881692A693B
:1016600041EA0221816124E0206800F049FF2068FE
:10167000C16941F00801C1612068C16921F004011C
:10168000C1612068C1692A69114311E0206800F036
:1016900063FF2068C16941F40061C1612068C169CC
:1016A00021F48061C1612068C1692A6941EA02218F
:1016B000C161002084F83C0070BD10B5040003D067
:1016C00094F83D0010B107E0012010BD002084F81F
:1016D0003C00204600F01EF8022084F83D00211D49
:1016E000206800F063FE012084F8460084F83E0084
:1016F00084F83F0084F8400084F8410084F84200F8
:1017000084F8430084F8440084F8450084F83D00E0
:10171000002010BD7047000010B50446022249B1F8
:1017200004290ED0082913D094F84100012816D0BE
:10173000012010BD94F83E000128F9D184F83E2024
:101740000FE094F83F000128F2D184F83F2008E030
:1017500094F840000128EBD184F8402001E084F89F
:1017600041200122206800F057FE0F49206888427E
:1017700003D1426C42F4004242642068884208D09F
:10178000B0F1804F05D00949884202D0084988420B
:1017900004D1816801F00701062903D0016841F0F6
:1017A00001010160002010BD002C01400004004038
:1017B0000008004070B5040004D094F83D000025F6
:1017C00010B106E0012070BD84F83C50204600F0C6
:1017D00023F8242084F83D002068C16821F40051DA
:1017E000C160204600F0FEFE2068016921F49041AE
:1017F00001612068416921F02A0141612068C168C6
:1018000041F40051C1602564202084F83D0084F833
:101810003E00002070BD000030B585B0002400946B
:1018200001940294039400681449884224D1144816
:10183000816941F480418161816901F480410491B1
:10184000816941F00401816180690E4D00F004005E
:1018500004904FF400700090022001900320039048
:1018600069462846FEF704FE2815CDE900046946BE
:1018700028460294FEF7FCFD05B030BD003801405B
:101880000010024000080140FEE701684A69D243A7
:1018900052050FD46FF480624A61002140F8301F76
:1018A000202242738173026942F0040202610173D3
:1018B00001207047002070472DE9F84F044600686A
:1018C00089460B9D01689846174641F48061016086
:1018D0002068016841F48071016000954FF0011BA0
:1018E0000022594620460A9B00F0DEF84FF4007AA9
:1018F00040B120680068C00501D5C4F840A00320AD
:10190000BDE8F88F216809F0FE0008612B462849E0
:1019100020460A9A00F0FCF8F0BB20684169806913
:1019200000902A4620460A9900F070F940B1206CD8
:1019300004283AD12068016841F40071016034E064
:10194000FEB2B8F1010F09D02168380A08612A46B1
:1019500020460A9900F05AF90028E8D1206806616B
:101960002A4620460A9900F051F90028DFD1206864
:10197000016841F4807101600095002259462046BB
:101980000A9B00F091F80028B3D1216809F0FF000C
:1019900040F00100086100E007E02B4604492046C2
:1019A0000A9A00F0B5F80028AAD00120A8E70000A4
:1019B000020001002DE9F843044600680D46DDE908
:1019C000089701689846164641F4807101604B46BD
:1019D00000224FF001112046009700F065F848B151
:1019E00020680068C00502D54FF400702064032011
:1019F000BDE8F883216805F0FE0008613B464A46D1
:101A00001549204600F084F888B92068416980694A
:101A100000903A464946204600F0F8F848B1206C5C
:101A2000042804D12068016841F40071016001209C
:101A3000DEE7F5B2B8F1010F09D02168300A08617C
:101A40003A464946204600F0E1F80028E7D12068F0
:101A500005610020CCE700000200010070B51646C9
:101A60000D4604460DE02046FFF70FFF08B10120A8
:101A700070BD681C05D0FEF7F1FD801BA84207D899
:101A800035B120684069C0434007ECD4002070BDE8
:101A9000002044F8300F20216173A073216941F0C8
:101AA000200121612073E2E72DE9F0471E469046B0
:101AB0000D460446C1F30747DDF8209008E0701C8E
:101AC00006D0FEF7CBFDA0EB0900B0420FD876B1EF
:101AD0002068012F18D0806925EA00000004000C5E
:101AE00014D000214145EAD00020BDE8F087002055
:101AF00044F8300F20216173A073216941F0200167
:101B0000216120730120F0E74069E5E70121E9E761
:101B10002DE9F0479A4691460E46044600254FF0BF
:101B20002008C1F3074725E020684069C04340050D
:101B300014D42068016841F40071016021686FF4D9
:101B400080604861256384F83D8084F83E50206CB5
:101B500040F00400206484F83C501FE0B9F1FF3FDE
:101B600008D0FEF77BFDA0EB0A0149450CD8B9F17E
:101B7000000F09D02068012F13D0806926EA0000E9
:101B80000004000C0BD0CFE744F8305F84F80D80E0
:101B9000A573206940F02000206125730120BDE875
:101BA000F0874069EAE72DE9F041002590460E46AE
:101BB0000446202717E04069C043C0060CD454F8FF
:101BC000301B6FF01000486144F810596777A57713
:101BD000206A2062257717E0FEF740FDA0EB0800A1
:101BE000B04208D83EB120684169C9434906E2D4F1
:101BF0000020BDE8F08144F8305F6773A573206969
:101C000040F02000206125730120F2E770B51646F0
:101C10000D4604460DE02046FFF737FE08B10120CF
:101C200070BD681C05D0FEF719FD801BA84207D8BF
:101C300035B120684069C0430006ECD4002070BD77
:101C4000002044F8300F20216173A073216941F016
:101C5000200121612073E2E77CB514460D4606465B
:101C60006A4606213B2000F07DF800280BD1BDF824
:101C7000001049BA3180BDF8021049BA2980BDF878
:101C8000041049BA21807CBD7CB514460D46064639
:101C90006A460621432000F065F800280BD1BDF804
:101CA000001049BA3180BDF8021049BA2980BDF848
:101CB000041049BA21807CBD10B51C48FEF7D4FC45
:101CC00080216B2000F098F800216B2000F094F840
:101CD000032000F05CF8002000F054F8322000F0FF
:101CE00073F80021382000F087F800216A2000F006
:101CF00083F80021232000F07FF88021372000F0B6
:101D00007BF8752000F014F8682801D0012010BD80
:101D100001216B2000F070F800216C2000F06CF8BD
:101D2000322000F051F8002010BD0000C00000205B
:101D30001FB500218DF80C1040F6FF73012203A996
:101D40008DE80E0013460246D1210548FEF750FDEE
:101D50006420FEF77BFB9DF80C0004B010BD000072
:101D6000C00000200EB540F6FF730092CDE90113CC
:101D700002460123D1210248FEF73AFD00200EBDA4
:101D8000C0000020C006010E1C2000F035B8C006BF
:101D9000010E1B2000F030B8BC2801D3012110E057
:101DA000622801D302210CE02A2801D3032108E094
:101DB000142801D3042104E00A2801D3052100E0FE
:101DC00006211A2000F018B810B504464FF47A70B6
:101DD000844201D9044602E0042C00D20424B0FB62
:101DE000F4F0401EC1B2192000F006F86008BDE80A
:101DF0001040FFF7D1BF00001FB540F6FF738DF80C
:101E00000C10012203A98DE80E0013460246D021D2
:101E10000448FEF715FE6420FEF718FB04B000200E
:101E200010BD0000C00000202DE9F04385B0002463
:101E300037480094019402940394816941F01001A1
:101E40008161816901F010010491816941F02001F3
:101E50008161816901F020010491816941F00401EF
:101E60008161816901F004010491816941F00801F7
:101E700081618069274F00F008004FF400550490FD
:101E8000002229463846FEF7E3FBDFF88C8001226A
:101E900040F608014046FEF7DBFB002210214046D9
:101EA000FEF7D6FBDFF87490002269104846FEF773
:101EB000CFFB012229464846FEF7CAFB00950226C1
:101EC00001250396CDE9015469463846FEF7D0FA5C
:101ED000A80300901248CDE9010569463846FEF78F
:101EE000C7FA40F61800CDE90005CDE9024669467B
:101EF0004046FEF7BDFA4FF44050CDE90005CDE96C
:101F0000024669464846FEF7B3FA05B0BDE8F083DD
:101F1000001002400010014000080140000C014088
:101F2000000021100D4810B50B4901600C494160BB
:101F300000214FF480428160C0E903124161816158
:101F4000C1610162FEF790FB002803D0BDE810409C
:101F5000FEF7FDB910BD000000540040C000002095
:101F6000801A060010B58CB024216846FEF72CF9C3
:101F70000024164809944FF080410A94C0E90014E7
:101F80004FF6FF71C0E90241046184610320CDE98D
:101F900000040120CDE9020406210491CDE90540A9
:101FA000CDE9074169460948FFF71BFA08B1FEF77A
:101FB000CEF9099409A905480A94FFF731F90028D8
:101FC00001D0FEF7C4F90CB010BD000014010020D0
:101FD00010B58EB000240794089409940A940B94C9
:101FE0001C2168460C94FEF7EFF823482149C0E90C
:101FF000001441F61F41C0E9024104618461FFF70A
:1020000043F908B1FEF7A3F94FF48050079007A9F0
:102010001948FFF77BF908B1FEF799F91648FFF761
:102020004CFB08B1FEF793F90B940BA912480C94E2
:10203000FFF7F6F808B1FEF78AF96020009040F645
:102040000F60CDE90104002269460B480494FFF7B4
:10205000D1FA08B1FEF77BF9042269460648FFF77A
:10206000C9FA08B1FEF773F90348FFF79DFA0EB0FD
:1020700010BD0000000400405C01002010B58CB0D1
:1020800024216846FEF7A0F8002416480994144954
:102090000A94C0E900144FF6FF71C0E902410461DF
:1020A00084610320CDE900040120CDE9020406216A
:1020B0000491CDE90540CDE9074169460948FFF79C
:1020C00090F908B1FEF743F9099409A905480A9463
:1020D000FFF7A6F8002801D0FEF739F90CB010BDC3
:1020E00000080040A40100200C4810B50A49016016
:1020F0004FF416514160002181600C22C160C0E99B
:1021000004128161C161FFF755FB002803D0BDE8CF
:102110001040FEF71CB910BD00380140EC01002052
:10212000FEE7FEE770B50A4C206E80F00046606E58
:1021300080F00041206A01F001FB05463146E0696C
:1021400001F0FCFA294601F0A5F9E06270BD00003B
:102150000400002070B5284CD4E90401084400F0C4
:1021600061FF4FF0FF3201F05CFC00F021FD002127
:1021700021616161606401F061F94FF033321F4BFE
:1021800000F068FF05460E46E06C01F057F94FF08D
:1021900066321B4B00F05EFF2A46334600F03AFDE4
:1021A00000F006FDA064E06480F000452846A16AC6
:1021B00001F0C4FA216D01F06DF9206501F08EFA8D
:1021C00041F65831884201DC206D01E00D48206560
:1021D00001F084FA41F65831C84201DA0A48206514
:1021E000206B60632846616A01F0A8FA216D01F056
:1021F00051F9206370BD0000040000203333D33F49
:102200006666E63F00C0DA4500C0DAC570B50B4C23
:10221000616B206B0E4601F05DFB05466065208812
:10222000401C01F077FA294601F088FA044901F0D0
:1022300093F9314601F02EF9A06370BD040000202F
:102240000000C841704770472DE9F041204E0C4610
:1022500005000BD5002208213046FEF7F9F90122CE
:1022600010213046FEF7F4F96D4209E00122082101
:102270003046FEF7EDF9002210213046FEF7E8F96E
:102280004FF48051134E4F00002C0ADA01223046E1
:10229000FEF7DEF9002239463046FEF7D9F96442EE
:1022A00008E000223046FEF7D3F9012239463046D5
:1022B000FEF7CEF94FF4E150854200DD0546844239
:1022C00000DD044604480560001D0460BDE8F0819F
:1022D00000080140000C01403404004070B5194C66
:1022E000194D2088401C20802888401C2880FFF73A
:1022F0008DFF2088012811D0022812D00026032843
:1023000012D004281AD0052802D32680FEF722F81E
:10231000FEF766FCBDE87040FEF77DBFFEF738F8BB
:10232000F6E7FFF7FFFEF3E72888401C80B228801D
:102330000528EDD3FFF70EFF2E80E9E7FDF7A8FF94
:10234000E6E70000000000200400002030B58FB058
:1023500028216846FDF738FF14210AA8FDF734FF4D
:1023600001210804CDE90010002402940225049103
:10237000CDE907504FF4E01009906846FEF7A6FD3E
:1023800008B172B6FEE70F20CDE90A054FF4806070
:10239000CDE90C4002210AA80E94FEF7ABFC002800
:1023A00001D072B6FEE70FB030BD7047F0B50268DD
:1023B000164B174C174D4FF08047984205D0B84246
:1023C00003D0A04201D0A84203D122F070064A688F
:1023D0003243984205D0B84203D0A04201D0A8426F
:1023E00003D122F44074CA6822434C6922F080026F
:1023F000224302608A68C2620A688262984201D1FE
:102400000969016301214161F0BD0000002C014018
:10241000000400400008004010B501F01F03012136
:10242000046A99408C430462016A9A401143016234
:1024300010BD10B5846842EA032224F47F440A43A5
:102440002243826010BD826822F070020A4342F08B
:10245000070181607047000030B5026A22F0010276
:102460000262026A4368846924F073050C682C4395
:1024700022F002058A682A430A4DA8420BD122F0B5
:102480000805CA6823F440732A434D6922F0040208
:102490001D438B692B434360846149684163026239
:1024A00030BD0000002C014030B5026A22F010025D
:1024B0000262026A436884690D6824F4E64444EACF
:1024C00005248D6822F0200242EA05120B4DA84235
:1024D0000ED1CD6822F0800242EA05124D6923F444
:1024E000406343EA85038D6922F0400243EA850395
:1024F0004360846149688163026230BD002C014001
:1025000030B5026A22F480720262036A4268C469CA
:1025100023F4007324F073050C682C438D6843EAA0
:1025200005230C4DA8420ED1CD6823F4006343EA85
:1025300005234D6922F4405242EA05128D6923F4C5
:10254000806342EA05124260C4614968C163036264
:1025500030BD0000002C014030B5026A22F48052E8
:102560000262046A4268C3690D6823F4E64343EAE1
:1025700005238D6824F4005444EA0534064DA8422E
:1025800004D14D6922F4804242EA85124260C3615F
:1025900049680164046230BD002C014010B5036A33
:1025A000046A24F001040462846924F0F00444EA1B
:1025B000021423F00A020A438461026210BD10B5BE
:1025C000036A23F0100303628369046A23F47043EF
:1025D00043EA023224F0A00343EA0111826101625E
:1025E00010BD000070B5044600680169E26821F47E
:1025F0004051114301612169A068084361690843A2
:102600002168CA6841F20C639A430243CA60206899
:102610004169A26921F44071114341611E4920685A
:10262000884202D1FEF70CFC01E0FEF7F9FB00EB5B
:10263000C00101EB0012606864218000B2FBF0F37E
:10264000B3FBF1F36FF018067343B2FBF0F5B2FB86
:10265000F0F605EB8305322303EB0515B5FBF1F529
:10266000B6FBF1F605F0F00505EB0615B2FBF0F64A
:10267000B2FBF0F0B0FBF1F06FF01802504306EB44
:10268000800003EB0010B0FBF1F0216800F00F00B8
:102690002844886070BD000000380140FEE7490012
:1026A00050EAC12018BF04204A0D18BF40F00100B5
:1026B00040F2FF72B2EB515F08BF40F00200012808
:1026C00008BF052070470907090E002804DB00F148
:1026D000E02080F80014704700F00F0000F1E020C7
:1026E00080F8141D70472DE9F0414F1E00EBC70123
:1026F0000446D1E9000115461E4637F006020DD00A
:102700002A46334600F0A6FC7F1E04EBC703D3E93C
:10271000002300F07FFA37F00602F1D1022F25D016
:10272000042F13D0062F18BFBDE8F0812A46334688
:1027300000F090FCD4E90A2300F06CFA2A463346F4
:1027400000F088FCD4E9082300F064FA2A463346F6
:1027500000F080FCD4E9062300F05CFA2A463346F8
:1027600000F078FCD4E9042300F054FA2A463346FA
:1027700000F070FCD4E9022300F04CFA2A463346FC
:1027800000F068FCD4E90023BDE8F04100F042BA53
:10279000012201F046B900F03DBA0000024A0020D3
:1027A000110701F03EB9000001FDFFFF2DE9F84FD0
:1027B00004460D4621F0004000917349814211DC2E
:1027C0007249884201DC06D12CB120462946BDE879
:1027D000F84FFFF7DDBF6E48002DCCBF6D496E4945
:1027E000BDE8F88F6D49814211DD6D498142D8BF46
:1027F0004FF0FF366DDD20462946FFF750FF0428D5
:1028000008BFFFF7CBFF20462946BDE8F88F654992
:10281000654F25F00045814233DD6449814219DD71
:10282000002632464FF080432046294600F0F2F958
:1028300080468A4601222046294601F0F2F800220D
:102840003B4600F011FD4246534600F093FA044621
:102850000D463EE001260022BA463B462046294668
:1028600000F0D8F980460F460022534620462946FC
:1028700000F0FAFC42463B4600F07CFA04460D4666
:1028800027E04B4981421BDDDFF828A10226002208
:1028900053462046294600F0DDFB00223B4600F06F
:1028A000B9F980460F46002253462046294600F0DB
:1028B000DBFC42463B4600F05DFA04460D4608E06C
:1028C000032622462B4600203B4900F053FA0446DB
:1028D0000D4622462B461046194600F0BBFB8B46A0
:1028E000824602460B4600F0B5FB074602463348D7
:1028F00088460B4606217844FFF7F5FE52465B46B4
:1029000000F0A8FB82462E488B463A4643460521F6
:102910007844FFF7E8FE3A46434600F09BFB024648
:102920000B46002E504659460CDA00F073F9224649
:102930002B4600F08FFB01B022462B46BDE8F04F3E
:1029400000F086BC00F066F922462B4600F082FBC0
:102950001C4A7A4402EBC603D3E9002300F084FC4E
:1029600022462B4600F080FC174A7A4402EBC6034D
:10297000D3E9002300F06CFC009A002AB8BF81F074
:102980000041BDE8F88F0000000010440000F07F17
:10299000182D4454FB21F93FFB21F9BF0000DC3F17
:1029A0000000203E0000F33F0000F03F0000E63F43
:1029B000008003400000F83F0000F0BF3612000026
:1029C000F4110000921100005A1100002DE9F04DA1
:1029D0009446CCF1000423F000464CEA0404524F24
:1029E00046EAD4749A46884621F00042BC4206D892
:1029F000454240EA050442EAD474BC4204D9BDE829
:102A0000F04D6246FFF7C7BEAAF14055A5F17F65BC
:102A100055EA0C040BD0022404EAAA74434DDFF8F3
:102A200010E144EAD87452EA000B04D00CE0BDE88F
:102A3000F04DFFF7BBBE002C14BF012CBDE8F08D9C
:102A4000022C30D0032C32D056EA0C0B0AD0BE42F6
:102A500020D1BA4209D126F0804622F08042334686
:102A6000114617E000291ADB25E0DFF8C8B0FB4467
:102A7000002C04BFDBE90001BDE8F08D012C02BF92
:102A8000DBE9000181F00041BDE8F08D022C0AD0A5
:102A9000032C0CD0BA4212D1B8F1000F0BDA234844
:102AA0002549BDE8F08D28462449BDE8F08D28462B
:102AB0007146BDE8F08D1D482149BDE8F08D921B9F
:102AC00012153C2AC4BF19481D490EDCBAF1000F8B
:102AD000BEBF12F13C0F0020014606DB624600F04B
:102AE00049F921F00041FFF761FE002C08BFBDE865
:102AF000F08D012C04BF81F00041BDE8F08D114A3A
:102B0000114B022C07D000F0AFFB2A46BDE8F04D78
:102B10000A4B00F0A9BB00F0A7FB2A46BDE8F04D28
:102B2000064B00F095BB00000000F07F182D4454C8
:102B3000FB2109C0EE100000FB21F9BFFB21094079
:102B4000FB21F93F075C143326A6A13CFEF750F8A1
:102B5000FFF7FCFBFFF768F9FFF7E4F9FFF702FA6C
:102B6000FFF736FAFFF78AFAFFF7BEFAFFF7A4F885
:102B700028B100224FF480410948FDF769FD3C214E
:102B80000848FEF7C9FC3C210748FEF7C5FC0021B8
:102B90000648FEF7C1FD04210448FEF7BDFDFEE72F
:102BA00000100140A4010020140100205C0100205D
:102BB00021F00042A2F16052B2F5801F01F0004303
:102BC00028BFD2F17F6C0BD95FEA001C43EAC20236
:102BD00042EB507018BF704728BF20F001007047CB
:102BE000B2F5801FBCBF184670474FEA410C1CF578
:102BF000001F02D2084600F068BE70B500F0D4FA9B
:102C000000000089FFF7F6BF4FF00040A0F58000FC
:102C10007047000010B591EA030F48BF83F00043EE
:102C200000F12A83841A71EB030C05D2121943EBCD
:102C30000C03001B61EB0C01DFF824E14FEA115497
:102C4000A4EB135C1EEA430F18BF9EEA445F73D0E7
:102C500023EA0E03DCF1200E21EA045143F4801331
:102C600032D322FA0CFE10EB0E0023FA0CFE41EBDD
:102C70000E01CCF1200E03FA0EFE10EB0E0051F106
:102C80000001B1F5801FCCF1200E32D201EB0451CE
:102C900012FA0EF2BDE8104058BF7047401C38BF12
:102CA0005FEA420218BF7047002814BF20F00100FD
:102CB00041F100014FEA410313F5001F38BF70478F
:102CC000A1F1C04100F0BEBA012A43EB0302ACF10E
:102CD000200CDCF11F0E32BF4FF0000E23FA0CF374
:102CE00010EB030041EB0451B4EB115FD0D0A1EB2A
:102CF000045101F5801149085FEA300001EB0451ED
:102D00000ED350F1000038BF12FA0EFE08D1BDE814
:102D10001040C9E7401C38BF5FEA4202CAD1C3E78E
:102D2000BDE810404FEA410313F5001F38BF70475C
:102D3000A1F1C04100F086BA9EEA445F08D011EAD2
:102D40005E0FBDE8104004BF01F000410020704755
:102D5000BDE8104070B500F027FA00BF64FBBE3E2E
:102D60000000E0FF02494FF0000000F028BE00BF65
:102D70000000F87F2DE9C04130B4DFF8A0C23CEA82
:102D8000111418BF3CEA131400F0EC8081EA03052B
:102D90001CEA111444EAD57418BF1CEA131500F09C
:102DA000C780A4EB05044FF0004545EAC12145EA80
:102DB000C32341EA505143EA525304F17F749942CC
:102DC00004F500344FEAC0204FEAC22208BF904207
:102DD00000F09C804FEA13650FF24016765D4FEAD3
:102DE000134506FB05F7C7F1807706FB07F74FEAA7
:102DF000D737A7FB03687642C8F58038A7FB06CE15
:102E000038BFA8F1010807FB08E64FF0000EA6FB4B
:102E1000028CE6FB03CEDCF1000CCEF1004E38BF95
:102E2000AEF1010EA6FB0C584FF000074FF0000565
:102E3000E6FB0E87A1FB08C6A0FB07CE16EB0E062D
:102E400045F10005E1FB076515F1E04E7EBFA4F5F5
:102E500080345FEA46066D4116F1800745F10005B2
:102E60004FEA17274FEA066647EA0567A6F1DE46EE
:102E7000B6F1805F4FEA15251FD9384624F0010CC2
:102E800005EBC471BCF1FE6F01EB0C1102D8F0BC74
:102E9000BDE8008124425CBF01F5801E9EEAC47F2C
:102EA00002D4F0BCBDE80081244238D4F0BCA1F1CA
:102EB000C041BDE8004100F0C5B94FEAD22242EA64
:102EC00043524FEAD323A7FB02864FEAD02040EAC1
:102ED000415007FB03661EEA0E0F4FEAD12105FBA6
:102EE000026658BFA6EB0056B6EB00564FEA520EEC
:102EF0004EEAC37E18EB0E0E56EB530EBDD518EB03
:102F000002085E417F1C55F10005B6E74FF48015BD
:102F10004FF000074FF000064FF00008ADE7F0BC9F
:102F20004FF0000001F1C04101F00041BDE8008117
:102F300011EA0C1F0CEA131500D00CE013EA0C1F69
:102F400000F025804FF00000F0BC81EA030101F0A1
:102F50000041BDE80081F0BCBDE8004181EA030109
:102F600000F070B9F0BCBDE8004170B500F01CF98C
:102F7000097EFC3E00F007B881EA03014FF0000033
:102F800001F00041704781EA030100F05BB9F0BC39
:102F9000BDE800414FF0000021497047FFFDFBF9FB
:102FA000F7F5F4F2F0EEEDEBE9E8E6E4E3E1E0DE7C
:102FB000DDDBDAD8D7D5D4D3D1D0CFCDCCCBCAC8EE
:102FC000C7C6C5C4C2C1C0BFBEBDBCBBBAB9B8B715
:102FD000B6B5B4B3B2B1B0AFAEADACABAAA9A8A808
:102FE000A7A6A5A4A3A3A2A1A09F9F9E9D9C9C9BD6
:102FF0009A99999897979695959493939291919081
:103000008F8F8E8E8D8C8C8B8B8A89898888878711
:103010008685858484838382828181800000FF0786
:103020000000F87F10F0004248BF4042B0FA80F341
:1030300010FA03F10AD0C3F11D0303F580634FEAD0
:10304000415002EB035202EBD12170474FF00000D8
:1030500070470000DFF848C170B51CEA111E1EBFA2
:103060001CEA13159EEA0C0F95EA0C0F00F06F8016
:1030700081EA030423EA4C134EEAD47E21EA4C1180
:1030800041F4801143F48013AE44A1FB024CA0FB39
:103090000365AEF17F7E361955EB0C05A1FB034CA1
:1030A0004CF10003A0FB021C16EB0C06654153F12A
:1030B0000003094218BF46F0010613F4007F0BD14C
:1030C0004FEA03314FEA0530340341EA155140EA33
:1030D00016506FF003020AE04FEAC3214FEAC52001
:1030E000F40241EA555140EA56506FF0020202EBF9
:1030F0002E4201EB025585EACE710AD05FEA440CFC
:1031000018BF24F0004450F1000041F1000120EA12
:10311000D47040F2FE7C624500D270BDA84214BF5C
:103120004FF080444FF04044002E08BF0024BEF111
:10313000806FA8BFA1F1C041BDE8704080F28280DD
:103140004FF0000001F1C04101F0004170479EEADC
:103150000C0F0CEA131518BF95EA0C0F06D04FF0B0
:10316000000081EA030E0EF0004170BD00F01CF873
:103170008900013E00F007B800F009B84FEA430C9F
:103180005FEA5C5C08D081EA030100F05BB84FEABB
:10319000410C5FEA5C5CF6D14FF0000001497047DA
:1031A0000000FF070000F87F0EF1020E2EF0030E64
:1031B0005EF8046B364205D4012A43EB030515F58E
:1031C000001F12D8012841EB010C1CF5001F0CD880
:1031D0000ED14FEAD17C15F5001F0CEB4C0C0CF115
:1031E000020C08BF4CEBD37C04E04FF0080C01E06C
:1031F0004FEAD37C0CEB4C0526FA05F606F00706E1
:10320000B6F1040C06D20EEB860CBDE870404CF013
:10321000010C6047DFE80CF0090B02024FF000419F
:103220004FF00000A1F5002170BD1946104601289D
:1032300051EB010418BFD4F5001484BF002001F045
:10324000004170BD0808A0F500114FEA3101704738
:1032500091EA030F10B581F000413FF5E3AC83F034
:10326000004300F009B8000010B591EA030F48BF11
:1032700083F000433FF5D6AC841A71EB030C07D200
:1032800012198CF0004C43EB0C03001B61EB0C019A
:10329000DFF8A4E14FEA1154A4EB135C1EEA430FDC
:1032A00018BF9EEA445F00F0B08023EA6E035242EA
:1032B00021EA0451C3EB6E0338BF5B1EDCF1200E24
:1032C00025D322FA0CFE10EB0E0043FA0CFE41EB64
:1032D0000E01CCF1200E03FA0EFE10EB0E0051F1A0
:1032E0000001CCF1200E29D412FA0EF201EB0451A8
:1032F000BDE8104058BF7047401C1CBFB2F1004FE2
:10330000704700280CBF491C20F00100704712EBE9
:10331000020E43EB030218BF4FF0010E4EEA4202C9
:10332000ACF1200CDCF11E0E54D943FA0CFE10EB6C
:103330000E0051F1FF31CCF11E0ED5D50EF1010E6C
:1033400012FA0EFE404141EB010101EB445C5FEAE1
:103350005C5C10D910EBDE7001EB045138BFBEF19C
:10336000004FBDE8104018BF704700280CBF491C33
:1033700020F00100704730D24FEAD42C11F5001133
:1033800024F400641BD0B1FA81F20B3AA41AA41EF3
:10339000D2F12003914030FA03F31943904001EB3E
:1033A000CC71002C01EB0451BDE81040A8BF704760
:1033B00001F1C0414FF0000001F000417047B0FA48
:1033C00080F310FA03F100D110BDE41A173C480550
:1033D000C90AE4E701EB045110BD491001EB0451A7
:1033E000BDE810404FEA300002E04FF000017047A6
:1033F0004A0008BF0042F8D0B2F5001F28BF70474E
:1034000001F000414FF0000070479EEA445F07D092
:1034100011EA5E0FBDE8104004BF00210020704794
:10342000BDE8104070B5FFF7BFFE00BF40DFF63EBD
:1034300083F00041104670470000E0FF43004FEA70
:10344000D30C4FEA3C0C43401FBF40070CF16051C6
:1034500013F0FE4F70471CF0006F03D100200CF0FA
:10346000004170470CF0004343EA507010B540EA49
:10347000CC0000F0E4F900BF000000924FEA000128
:10348000FFF7E0BE4FF000414FF00000A1F5002132
:103490007047000090EA010F48BF81F0004100F141
:1034A0002082421A3CBF801A89184FEAD0524FF04E
:1034B0007F4C1CEA410FA2EBD15318BF9CEA026F6C
:1034C00000F03B804FF0004C4CEA00204CEA012118
:1034D00021FA03FC10EB0C0C1ED202F1FF325FEA62
:1034E0001C2040EBC25038BF70471CF07F0F4FEAE2
:1034F000400C18BFBCF17F4F38BF7047C3F12003A9
:10350000994008BF20F00100BCF17F4F38BF7047E1
:10351000A0F1C04000F0D9B94FEA3C00000A40EBEE
:10352000C25028BF1CF0FF0F4FEA400CE6D018BF76
:10353000BCF17F4F38BF7047EAE79CEA026F05D0C5
:1035400010EA5C0F08BF00F00040704710B500F0B3
:1035500076F900BF64FBBE3E4FF47F0C1CEAD0122C
:103560001EBF1CEAD11392EA0C0F93EA0C0F00F075
:10357000858090EA010F48BF42F4807240F4000C4D
:1035800041F400002CF07F4120F07F4000B58142E3
:10359000A2EB03020FF2081CACEB504EC0F100008E
:1035A0009EF800E04FEA4E0E00FB0EFC38BF4900CB
:1035B0004FEA2C1C02F5FA020CFB0EF34FEACE1E6A
:1035C0004FEA112C4FEAC1210EEB635E42EB22421F
:1035D0000EFB0CFC4FEA1C5300FB03114FEA112CAD
:1035E0004FEA01310EFB0CFC4FEADC4C00FB0C11E6
:1035F000C14228BF09184CEB03335DF804EB10EB14
:10360000410143EBC250B2F57C0F38BF704729D55A
:1036100012F0F00F1CBF00F1C04000F000407047F6
:10362000008182838485868788898B8C8D8E8F919B
:103630009293959697999A9C9D9FA0A2A3A5A7A8BF
:10364000AAACAEB0B2B3B5B7B9BCBEC0C2C5C7C9EB
:10365000CCCED1D4D7D9DCDFE2E6E9ECF0F3F7FA4F
:10366000FE0000004FEA400C0CF1807CBCF17E4F64
:1036700028BF7047B0F1C04000F027B990EA010FB1
:103680000CEAD11348BF42F48072624538BF6345EB
:1036900007D213F47F0F16D080EA010000F000403B
:1036A000704710B500F0CBF8097EFC3E00F005B87D
:1036B00080EA010000F00040704780EA010000F05D
:1036C000004000F002B912F47F0F04BF02487047B7
:1036D00080EA010000F0F9B80000C07F41000B0E45
:1036E000D3F19E0208D950F400034FEA032323FAD2
:1036F00002F048BF4042704710B500F0A0F800BF8C
:1037000049922480002070476FF0004282EA200036
:1037100070470000B0FA80F310FA03F2C3F19D0382
:103720000AD0D90501EB1220530638BF704700F1CB
:10373000010008BF20F00100704700004FF47F0C2B
:103740001CEAD0121EBF1CEAD11392EA0C0F93EAB6
:103750000C0F00F0478090EA010F48BF42F48072DE
:103760004FF0004C4CEA00204CEA012102EB03022E
:10377000A0FB0113A2F50002002918BF43F00103CA
:103780005B0028BF4FEA330342EB22425FEA132C6F
:103790004CEBC2502EBFBCEB436FB2F57C0F7047B1
:1037A0004FEA036CBCF1004F08BF20F00100B2F5F6
:1037B0007C0F38BF70470BD582F0FF0212F5803FB7
:1037C000C8BF704700F1C040D8BF00F0004070474C
:1037D00000F5000C5FEA4C0C48BF7047B0F1C040E8
:1037E00000F073B890EA010F0CEAD11348BF42F41D
:1037F0008072624538BF634504D280EA010000F060
:103800000040704710B500F01AF800BF8900013E73
:1038100000F007B800F009B85FEA410C5FEA1C6CE1
:1038200008D080EA010000F050B85FEA400C5FEA7F
:103830001C6CF6D14FF00040A0F5800070470EF1EF
:10384000020E2EF0030E5EF8044B244204D44FEA1D
:103850004102B2F17F4F11D84FEA4003B3F17F4FDD
:103860000CD80ED14FEAD07CB2F17F4F0CEB4C0C50
:103870000CF1020C08BF4CEBD17C04E04FF0080CBB
:1038800001E04FEAD17C0CEB4C0324FA03F404F082
:103890000704B4F1040C06D20EEB840CBDE8104012
:1038A0004CF0010C6047DFE80CF0070802024FF013
:1038B0000040A0F5800010BD0846420018BFD2F1BC
:1038C000807288BF00F0004010BDFF2141EAD05057
:1038D000C005704790EA010F48BF81F000413FF5F5
:1038E000E0AD421A04D882F00042A0EB020011447D
:1038F0004FEAD0524FF07F4C1CEA410FA2EBD1535C
:1039000018BF9CEA026F4AD04FF0004C4CEA0020EE
:103910004CEA012121FA03FCB0EB0C0C0FD412F09D
:10392000FE0F36D05FEA4C001DD5001240EBC250AE
:1039300038BF70471CF03F0F18BF70470BE0A2F173
:1039400001025FEA1C2040EBC25038BF70471CF0F8
:103950007F0F18BF7047C3F12003994014BF401E6A
:1039600020F00100704780084FEA122308BF70471B
:10397000B0FA80FCA2EB0C02CCF1280C60FA0CF03F
:1039800093EA122F04BF00EBC25070474FEAC37096
:103990007047130A5FEADC1008BF7047F6E79CEA3D
:1039A000026F04D010EA5C0F08BF0020704710B50A
:1039B000FFF745FF40DFF63E81F0004070470CF016
:1039C0000F03092B08BF082000F059800A2B0BD0E9
:1039D000082B18BF704708BF1CF0400F0AD04FF0EB
:1039E00000004FF0000170471CF0400F18BF4FF06F
:1039F000004070471CF0100F08D020F0704300F01A
:103A00007F4242EAD3014FEA4370704700F06040C2
:103A100021F07F4242EA000201F07F4040EA7270EA
:103A200070474FF0FF0C4CF4E06C1CEA11531CBFC4
:103A30009CEA030C9445C2BFDA4201EB0251704785
:103A4000002B0DD0BCF1000F0FD0002A01F0004177
:103A5000A4BF41F0E04141F07F614FF000007047AA
:103A600001F000414FF00000704750EA01334FF081
:103A70009B0C18BF4CF0806C7FF474A970471CF449
:103A8000801F11D01CF4E02F03D06FEACC31490025
:103A900070474FF04050EFF3008222F0704242EA4C
:103AA000000282F3008870474FF00000704700006A
:103AB00000000000000001020304060708090000DE
:103AC00000000102030400004FBB610567ACDD3F4D
:103AD000182D4454FB21E93F9BF681D20B73EF3F35
:103AE000182D4454FB21F93FE2652F227F2B7A3CAD
:103AF000075C143326A6813CBDCBF07A8807703C66
:103B0000075C143326A6913CC4EB98999999C9BFD8
:103B1000711623FEC671BCBF6D9A74AFF2B0B3BF0D
:103B20009AFDDE522DDEADBF2F6C6A2C44B4A2BFCD
:103B30000D5555555555D53FFF8300922449C23F39
:103B40006E204CC5CD45B73F513DD0A0660DB13F6D
:103B5000EB0D76244B7BA93F11DA22E33AAD903F7F
:103B60000000000000000000883B0008000000206A
:103B7000C000000028010008483C0008C0000020E8
:103B8000D007000044010008000000000000000011
:103B90000000000000000000000000000000000025
:103BA000000000000AD7934000409C450000000040
:103BB0000000000000000000000000000000000005
:103BC00000000000000000000000000000000000F5
:103BD00000000000000000000000000000000000E5
:103BE00000000000000000000000000000000000D5
:103BF00000000000000000000000000000000000C5
:103C000000000000000000000000000000000000B4
:103C10000000C03F0000C03FCDCC4C3DCDCC4C3D62
:103C200000000000000000000000803F00000000D5
:103C3000000000000000803F0100000010000000B4
:083C4000000000000024F40064
:04000005080000ED02
:00000001FF
